{
	"ERC20/Airdrop.sol": {
		"Airdrop": {
			"abi": [
				{
					"inputs": [
						{
							"internalType": "address",
							"name": "_tokenAddr",
							"type": "address"
						},
						{
							"internalType": "address[]",
							"name": "_receivers",
							"type": "address[]"
						},
						{
							"internalType": "uint256[]",
							"name": "_amounts",
							"type": "uint256[]"
						}
					],
					"name": "SendAirDrop",
					"outputs": [],
					"stateMutability": "nonpayable",
					"type": "function"
				}
			],
			"devdoc": {
				"kind": "dev",
				"methods": {},
				"version": 1
			},
			"evm": {
				"assembly": "    /* \"ERC20/Airdrop.sol\":1786:2544  contract Airdrop {... */\n  mstore(0x40, 0x80)\n  callvalue\n  dup1\n  iszero\n  tag_1\n  jumpi\n  0x00\n  dup1\n  revert\ntag_1:\n  pop\n  dataSize(sub_0)\n  dup1\n  dataOffset(sub_0)\n  0x00\n  codecopy\n  0x00\n  return\nstop\n\nsub_0: assembly {\n        /* \"ERC20/Airdrop.sol\":1786:2544  contract Airdrop {... */\n      mstore(0x40, 0x80)\n      callvalue\n      dup1\n      iszero\n      tag_1\n      jumpi\n      0x00\n      dup1\n      revert\n    tag_1:\n      pop\n      jumpi(tag_2, lt(calldatasize, 0x04))\n      shr(0xe0, calldataload(0x00))\n      dup1\n      0xcbc3b01e\n      eq\n      tag_3\n      jumpi\n    tag_2:\n      0x00\n      dup1\n      revert\n        /* \"ERC20/Airdrop.sol\":1991:2541  function SendAirDrop(address _tokenAddr, address[] calldata _receivers, uint256[] calldata _amounts) external {... */\n    tag_3:\n      tag_4\n      0x04\n      dup1\n      calldatasize\n      sub\n      dup2\n      add\n      swap1\n      tag_5\n      swap2\n      swap1\n      tag_6\n      jump\t// in\n    tag_5:\n      tag_7\n      jump\t// in\n    tag_4:\n      stop\n    tag_7:\n        /* \"ERC20/Airdrop.sol\":2141:2149  _amounts */\n      dup2\n      dup2\n        /* \"ERC20/Airdrop.sol\":2141:2156  _amounts.length */\n      swap1\n      pop\n        /* \"ERC20/Airdrop.sol\":2120:2130  _receivers */\n      dup5\n      dup5\n        /* \"ERC20/Airdrop.sol\":2120:2137  _receivers.length */\n      swap1\n      pop\n        /* \"ERC20/Airdrop.sol\":2120:2156  _receivers.length == _amounts.length */\n      eq\n        /* \"ERC20/Airdrop.sol\":2112:2202  require(_receivers.length == _amounts.length,\"Lengths of Addresses and Amounts NOT EQUAL\") */\n      tag_9\n      jumpi\n      mload(0x40)\n      0x08c379a000000000000000000000000000000000000000000000000000000000\n      dup2\n      mstore\n      0x04\n      add\n      tag_10\n      swap1\n      tag_11\n      jump\t// in\n    tag_10:\n      mload(0x40)\n      dup1\n      swap2\n      sub\n      swap1\n      revert\n    tag_9:\n        /* \"ERC20/Airdrop.sol\":2213:2225  IERC20 token */\n      0x00\n        /* \"ERC20/Airdrop.sol\":2234:2244  _tokenAddr */\n      dup6\n        /* \"ERC20/Airdrop.sol\":2213:2245  IERC20 token = ERC20(_tokenAddr) */\n      swap1\n      pop\n        /* \"ERC20/Airdrop.sol\":2256:2271  uint _amountSum */\n      0x00\n        /* \"ERC20/Airdrop.sol\":2274:2290  getSum(_amounts) */\n      tag_12\n        /* \"ERC20/Airdrop.sol\":2281:2289  _amounts */\n      dup5\n      dup5\n        /* \"ERC20/Airdrop.sol\":2274:2280  getSum */\n      tag_13\n        /* \"ERC20/Airdrop.sol\":2274:2290  getSum(_amounts) */\n      jump\t// in\n    tag_12:\n        /* \"ERC20/Airdrop.sol\":2256:2290  uint _amountSum = getSum(_amounts) */\n      swap1\n      pop\n        /* \"ERC20/Airdrop.sol\":2323:2328  token */\n      dup2\n        /* \"ERC20/Airdrop.sol\":2323:2338  token.allowance */\n      0xffffffffffffffffffffffffffffffffffffffff\n      and\n      0xdd62ed3e\n        /* \"ERC20/Airdrop.sol\":2339:2349  msg.sender */\n      caller\n        /* \"ERC20/Airdrop.sol\":2359:2363  this */\n      address\n        /* \"ERC20/Airdrop.sol\":2323:2365  token.allowance(msg.sender, address(this)) */\n      mload(0x40)\n      dup4\n      0xffffffff\n      and\n      0xe0\n      shl\n      dup2\n      mstore\n      0x04\n      add\n      tag_14\n      swap3\n      swap2\n      swap1\n      tag_15\n      jump\t// in\n    tag_14:\n      0x20\n      mload(0x40)\n      dup1\n      dup4\n      sub\n      dup2\n      dup7\n      gas\n      staticcall\n      iszero\n      dup1\n      iszero\n      tag_17\n      jumpi\n      returndatasize\n      0x00\n      dup1\n      returndatacopy\n      revert(0x00, returndatasize)\n    tag_17:\n      pop\n      pop\n      pop\n      pop\n      mload(0x40)\n      returndatasize\n      not(0x1f)\n      0x1f\n      dup3\n      add\n      and\n      dup3\n      add\n      dup1\n      0x40\n      mstore\n      pop\n      dup2\n      add\n      swap1\n      tag_18\n      swap2\n      swap1\n      tag_19\n      jump\t// in\n    tag_18:\n        /* \"ERC20/Airdrop.sol\":2309:2319  _amountSum */\n      dup2\n        /* \"ERC20/Airdrop.sol\":2309:2365  _amountSum <= token.allowance(msg.sender, address(this)) */\n      gt\n      iszero\n        /* \"ERC20/Airdrop.sol\":2301:2393  require(_amountSum <= token.allowance(msg.sender, address(this)),\"Need Approve ERC20 token\") */\n      tag_20\n      jumpi\n      mload(0x40)\n      0x08c379a000000000000000000000000000000000000000000000000000000000\n      dup2\n      mstore\n      0x04\n      add\n      tag_21\n      swap1\n      tag_22\n      jump\t// in\n    tag_21:\n      mload(0x40)\n      dup1\n      swap2\n      sub\n      swap1\n      revert\n    tag_20:\n        /* \"ERC20/Airdrop.sol\":2409:2415  uint i */\n      0x00\n        /* \"ERC20/Airdrop.sol\":2404:2534  for (uint i = 0; i < _receivers.length; i++) {... */\n    tag_23:\n        /* \"ERC20/Airdrop.sol\":2425:2435  _receivers */\n      dup7\n      dup7\n        /* \"ERC20/Airdrop.sol\":2425:2442  _receivers.length */\n      swap1\n      pop\n        /* \"ERC20/Airdrop.sol\":2421:2422  i */\n      dup2\n        /* \"ERC20/Airdrop.sol\":2421:2442  i < _receivers.length */\n      lt\n        /* \"ERC20/Airdrop.sol\":2404:2534  for (uint i = 0; i < _receivers.length; i++) {... */\n      iszero\n      tag_24\n      jumpi\n        /* \"ERC20/Airdrop.sol\":2464:2469  token */\n      dup3\n        /* \"ERC20/Airdrop.sol\":2464:2482  token.transferFrom */\n      0xffffffffffffffffffffffffffffffffffffffff\n      and\n      0x23b872dd\n        /* \"ERC20/Airdrop.sol\":2483:2493  msg.sender */\n      caller\n        /* \"ERC20/Airdrop.sol\":2495:2505  _receivers */\n      dup10\n      dup10\n        /* \"ERC20/Airdrop.sol\":2506:2507  i */\n      dup6\n        /* \"ERC20/Airdrop.sol\":2495:2508  _receivers[i] */\n      dup2\n      dup2\n      lt\n      tag_26\n      jumpi\n      tag_27\n      tag_28\n      jump\t// in\n    tag_27:\n    tag_26:\n      swap1\n      pop\n      0x20\n      mul\n      add\n      0x20\n      dup2\n      add\n      swap1\n      tag_29\n      swap2\n      swap1\n      tag_30\n      jump\t// in\n    tag_29:\n        /* \"ERC20/Airdrop.sol\":2510:2518  _amounts */\n      dup9\n      dup9\n        /* \"ERC20/Airdrop.sol\":2519:2520  i */\n      dup7\n        /* \"ERC20/Airdrop.sol\":2510:2521  _amounts[i] */\n      dup2\n      dup2\n      lt\n      tag_31\n      jumpi\n      tag_32\n      tag_28\n      jump\t// in\n    tag_32:\n    tag_31:\n      swap1\n      pop\n      0x20\n      mul\n      add\n      calldataload\n        /* \"ERC20/Airdrop.sol\":2464:2522  token.transferFrom(msg.sender, _receivers[i], _amounts[i]) */\n      mload(0x40)\n      dup5\n      0xffffffff\n      and\n      0xe0\n      shl\n      dup2\n      mstore\n      0x04\n      add\n      tag_33\n      swap4\n      swap3\n      swap2\n      swap1\n      tag_34\n      jump\t// in\n    tag_33:\n      0x20\n      mload(0x40)\n      dup1\n      dup4\n      sub\n      dup2\n      0x00\n      dup8\n      gas\n      call\n      iszero\n      dup1\n      iszero\n      tag_36\n      jumpi\n      returndatasize\n      0x00\n      dup1\n      returndatacopy\n      revert(0x00, returndatasize)\n    tag_36:\n      pop\n      pop\n      pop\n      pop\n      mload(0x40)\n      returndatasize\n      not(0x1f)\n      0x1f\n      dup3\n      add\n      and\n      dup3\n      add\n      dup1\n      0x40\n      mstore\n      pop\n      dup2\n      add\n      swap1\n      tag_37\n      swap2\n      swap1\n      tag_38\n      jump\t// in\n    tag_37:\n      pop\n        /* \"ERC20/Airdrop.sol\":2444:2447  i++ */\n      dup1\n      dup1\n      tag_39\n      swap1\n      tag_40\n      jump\t// in\n    tag_39:\n      swap2\n      pop\n      pop\n        /* \"ERC20/Airdrop.sol\":2404:2534  for (uint i = 0; i < _receivers.length; i++) {... */\n      jump(tag_23)\n    tag_24:\n      pop\n        /* \"ERC20/Airdrop.sol\":2101:2541  {... */\n      pop\n      pop\n        /* \"ERC20/Airdrop.sol\":1991:2541  function SendAirDrop(address _tokenAddr, address[] calldata _receivers, uint256[] calldata _amounts) external {... */\n      pop\n      pop\n      pop\n      pop\n      pop\n      jump\t// out\n        /* \"ERC20/Airdrop.sol\":1810:1983  function getSum(uint256[] calldata _arr) internal pure returns(uint256 sum){... */\n    tag_13:\n        /* \"ERC20/Airdrop.sol\":1873:1884  uint256 sum */\n      0x00\n        /* \"ERC20/Airdrop.sol\":1901:1907  uint i */\n      dup1\n        /* \"ERC20/Airdrop.sol\":1910:1911  0 */\n      0x00\n        /* \"ERC20/Airdrop.sol\":1901:1911  uint i = 0 */\n      swap1\n      pop\n        /* \"ERC20/Airdrop.sol\":1896:1976  for (uint i = 0; i < _arr.length; i++) {... */\n    tag_42:\n        /* \"ERC20/Airdrop.sol\":1917:1921  _arr */\n      dup4\n      dup4\n        /* \"ERC20/Airdrop.sol\":1917:1928  _arr.length */\n      swap1\n      pop\n        /* \"ERC20/Airdrop.sol\":1913:1914  i */\n      dup2\n        /* \"ERC20/Airdrop.sol\":1913:1928  i < _arr.length */\n      lt\n        /* \"ERC20/Airdrop.sol\":1896:1976  for (uint i = 0; i < _arr.length; i++) {... */\n      iszero\n      tag_43\n      jumpi\n        /* \"ERC20/Airdrop.sol\":1957:1961  _arr */\n      dup4\n      dup4\n        /* \"ERC20/Airdrop.sol\":1962:1963  i */\n      dup3\n        /* \"ERC20/Airdrop.sol\":1957:1964  _arr[i] */\n      dup2\n      dup2\n      lt\n      tag_45\n      jumpi\n      tag_46\n      tag_28\n      jump\t// in\n    tag_46:\n    tag_45:\n      swap1\n      pop\n      0x20\n      mul\n      add\n      calldataload\n        /* \"ERC20/Airdrop.sol\":1950:1964  sum += _arr[i] */\n      dup3\n      tag_47\n      swap2\n      swap1\n      tag_48\n      jump\t// in\n    tag_47:\n      swap2\n      pop\n        /* \"ERC20/Airdrop.sol\":1930:1933  i++ */\n      dup1\n      dup1\n      tag_49\n      swap1\n      tag_40\n      jump\t// in\n    tag_49:\n      swap2\n      pop\n      pop\n        /* \"ERC20/Airdrop.sol\":1896:1976  for (uint i = 0; i < _arr.length; i++) {... */\n      jump(tag_42)\n    tag_43:\n      pop\n        /* \"ERC20/Airdrop.sol\":1810:1983  function getSum(uint256[] calldata _arr) internal pure returns(uint256 sum){... */\n      swap3\n      swap2\n      pop\n      pop\n      jump\t// out\n        /* \"#utility.yul\":88:205   */\n    tag_51:\n        /* \"#utility.yul\":197:198   */\n      0x00\n        /* \"#utility.yul\":194:195   */\n      dup1\n        /* \"#utility.yul\":187:199   */\n      revert\n        /* \"#utility.yul\":211:328   */\n    tag_52:\n        /* \"#utility.yul\":320:321   */\n      0x00\n        /* \"#utility.yul\":317:318   */\n      dup1\n        /* \"#utility.yul\":310:322   */\n      revert\n        /* \"#utility.yul\":334:460   */\n    tag_53:\n        /* \"#utility.yul\":371:378   */\n      0x00\n        /* \"#utility.yul\":411:453   */\n      0xffffffffffffffffffffffffffffffffffffffff\n        /* \"#utility.yul\":404:409   */\n      dup3\n        /* \"#utility.yul\":400:454   */\n      and\n        /* \"#utility.yul\":389:454   */\n      swap1\n      pop\n        /* \"#utility.yul\":334:460   */\n      swap2\n      swap1\n      pop\n      jump\t// out\n        /* \"#utility.yul\":466:562   */\n    tag_54:\n        /* \"#utility.yul\":503:510   */\n      0x00\n        /* \"#utility.yul\":532:556   */\n      tag_82\n        /* \"#utility.yul\":550:555   */\n      dup3\n        /* \"#utility.yul\":532:556   */\n      tag_53\n      jump\t// in\n    tag_82:\n        /* \"#utility.yul\":521:556   */\n      swap1\n      pop\n        /* \"#utility.yul\":466:562   */\n      swap2\n      swap1\n      pop\n      jump\t// out\n        /* \"#utility.yul\":568:690   */\n    tag_55:\n        /* \"#utility.yul\":641:665   */\n      tag_84\n        /* \"#utility.yul\":659:664   */\n      dup2\n        /* \"#utility.yul\":641:665   */\n      tag_54\n      jump\t// in\n    tag_84:\n        /* \"#utility.yul\":634:639   */\n      dup2\n        /* \"#utility.yul\":631:666   */\n      eq\n        /* \"#utility.yul\":621:684   */\n      tag_85\n      jumpi\n        /* \"#utility.yul\":680:681   */\n      0x00\n        /* \"#utility.yul\":677:678   */\n      dup1\n        /* \"#utility.yul\":670:682   */\n      revert\n        /* \"#utility.yul\":621:684   */\n    tag_85:\n        /* \"#utility.yul\":568:690   */\n      pop\n      jump\t// out\n        /* \"#utility.yul\":696:835   */\n    tag_56:\n        /* \"#utility.yul\":742:747   */\n      0x00\n        /* \"#utility.yul\":780:786   */\n      dup2\n        /* \"#utility.yul\":767:787   */\n      calldataload\n        /* \"#utility.yul\":758:787   */\n      swap1\n      pop\n        /* \"#utility.yul\":796:829   */\n      tag_87\n        /* \"#utility.yul\":823:828   */\n      dup2\n        /* \"#utility.yul\":796:829   */\n      tag_55\n      jump\t// in\n    tag_87:\n        /* \"#utility.yul\":696:835   */\n      swap3\n      swap2\n      pop\n      pop\n      jump\t// out\n        /* \"#utility.yul\":841:958   */\n    tag_57:\n        /* \"#utility.yul\":950:951   */\n      0x00\n        /* \"#utility.yul\":947:948   */\n      dup1\n        /* \"#utility.yul\":940:952   */\n      revert\n        /* \"#utility.yul\":964:1081   */\n    tag_58:\n        /* \"#utility.yul\":1073:1074   */\n      0x00\n        /* \"#utility.yul\":1070:1071   */\n      dup1\n        /* \"#utility.yul\":1063:1075   */\n      revert\n        /* \"#utility.yul\":1087:1204   */\n    tag_59:\n        /* \"#utility.yul\":1196:1197   */\n      0x00\n        /* \"#utility.yul\":1193:1194   */\n      dup1\n        /* \"#utility.yul\":1186:1198   */\n      revert\n        /* \"#utility.yul\":1227:1795   */\n    tag_60:\n        /* \"#utility.yul\":1300:1308   */\n      0x00\n        /* \"#utility.yul\":1310:1316   */\n      dup1\n        /* \"#utility.yul\":1360:1363   */\n      dup4\n        /* \"#utility.yul\":1353:1357   */\n      0x1f\n        /* \"#utility.yul\":1345:1351   */\n      dup5\n        /* \"#utility.yul\":1341:1358   */\n      add\n        /* \"#utility.yul\":1337:1364   */\n      slt\n        /* \"#utility.yul\":1327:1449   */\n      tag_92\n      jumpi\n        /* \"#utility.yul\":1368:1447   */\n      tag_93\n      tag_57\n      jump\t// in\n    tag_93:\n        /* \"#utility.yul\":1327:1449   */\n    tag_92:\n        /* \"#utility.yul\":1481:1487   */\n      dup3\n        /* \"#utility.yul\":1468:1488   */\n      calldataload\n        /* \"#utility.yul\":1458:1488   */\n      swap1\n      pop\n        /* \"#utility.yul\":1511:1529   */\n      0xffffffffffffffff\n        /* \"#utility.yul\":1503:1509   */\n      dup2\n        /* \"#utility.yul\":1500:1530   */\n      gt\n        /* \"#utility.yul\":1497:1614   */\n      iszero\n      tag_94\n      jumpi\n        /* \"#utility.yul\":1533:1612   */\n      tag_95\n      tag_58\n      jump\t// in\n    tag_95:\n        /* \"#utility.yul\":1497:1614   */\n    tag_94:\n        /* \"#utility.yul\":1647:1651   */\n      0x20\n        /* \"#utility.yul\":1639:1645   */\n      dup4\n        /* \"#utility.yul\":1635:1652   */\n      add\n        /* \"#utility.yul\":1623:1652   */\n      swap2\n      pop\n        /* \"#utility.yul\":1701:1704   */\n      dup4\n        /* \"#utility.yul\":1693:1697   */\n      0x20\n        /* \"#utility.yul\":1685:1691   */\n      dup3\n        /* \"#utility.yul\":1681:1698   */\n      mul\n        /* \"#utility.yul\":1671:1679   */\n      dup4\n        /* \"#utility.yul\":1667:1699   */\n      add\n        /* \"#utility.yul\":1664:1705   */\n      gt\n        /* \"#utility.yul\":1661:1789   */\n      iszero\n      tag_96\n      jumpi\n        /* \"#utility.yul\":1708:1787   */\n      tag_97\n      tag_59\n      jump\t// in\n    tag_97:\n        /* \"#utility.yul\":1661:1789   */\n    tag_96:\n        /* \"#utility.yul\":1227:1795   */\n      swap3\n      pop\n      swap3\n      swap1\n      pop\n      jump\t// out\n        /* \"#utility.yul\":1818:2386   */\n    tag_61:\n        /* \"#utility.yul\":1891:1899   */\n      0x00\n        /* \"#utility.yul\":1901:1907   */\n      dup1\n        /* \"#utility.yul\":1951:1954   */\n      dup4\n        /* \"#utility.yul\":1944:1948   */\n      0x1f\n        /* \"#utility.yul\":1936:1942   */\n      dup5\n        /* \"#utility.yul\":1932:1949   */\n      add\n        /* \"#utility.yul\":1928:1955   */\n      slt\n        /* \"#utility.yul\":1918:2040   */\n      tag_99\n      jumpi\n        /* \"#utility.yul\":1959:2038   */\n      tag_100\n      tag_57\n      jump\t// in\n    tag_100:\n        /* \"#utility.yul\":1918:2040   */\n    tag_99:\n        /* \"#utility.yul\":2072:2078   */\n      dup3\n        /* \"#utility.yul\":2059:2079   */\n      calldataload\n        /* \"#utility.yul\":2049:2079   */\n      swap1\n      pop\n        /* \"#utility.yul\":2102:2120   */\n      0xffffffffffffffff\n        /* \"#utility.yul\":2094:2100   */\n      dup2\n        /* \"#utility.yul\":2091:2121   */\n      gt\n        /* \"#utility.yul\":2088:2205   */\n      iszero\n      tag_101\n      jumpi\n        /* \"#utility.yul\":2124:2203   */\n      tag_102\n      tag_58\n      jump\t// in\n    tag_102:\n        /* \"#utility.yul\":2088:2205   */\n    tag_101:\n        /* \"#utility.yul\":2238:2242   */\n      0x20\n        /* \"#utility.yul\":2230:2236   */\n      dup4\n        /* \"#utility.yul\":2226:2243   */\n      add\n        /* \"#utility.yul\":2214:2243   */\n      swap2\n      pop\n        /* \"#utility.yul\":2292:2295   */\n      dup4\n        /* \"#utility.yul\":2284:2288   */\n      0x20\n        /* \"#utility.yul\":2276:2282   */\n      dup3\n        /* \"#utility.yul\":2272:2289   */\n      mul\n        /* \"#utility.yul\":2262:2270   */\n      dup4\n        /* \"#utility.yul\":2258:2290   */\n      add\n        /* \"#utility.yul\":2255:2296   */\n      gt\n        /* \"#utility.yul\":2252:2380   */\n      iszero\n      tag_103\n      jumpi\n        /* \"#utility.yul\":2299:2378   */\n      tag_104\n      tag_59\n      jump\t// in\n    tag_104:\n        /* \"#utility.yul\":2252:2380   */\n    tag_103:\n        /* \"#utility.yul\":1818:2386   */\n      swap3\n      pop\n      swap3\n      swap1\n      pop\n      jump\t// out\n        /* \"#utility.yul\":2392:3471   */\n    tag_6:\n        /* \"#utility.yul\":2523:2529   */\n      0x00\n        /* \"#utility.yul\":2531:2537   */\n      dup1\n        /* \"#utility.yul\":2539:2545   */\n      0x00\n        /* \"#utility.yul\":2547:2553   */\n      dup1\n        /* \"#utility.yul\":2555:2561   */\n      0x00\n        /* \"#utility.yul\":2604:2606   */\n      0x60\n        /* \"#utility.yul\":2592:2601   */\n      dup7\n        /* \"#utility.yul\":2583:2590   */\n      dup9\n        /* \"#utility.yul\":2579:2602   */\n      sub\n        /* \"#utility.yul\":2575:2607   */\n      slt\n        /* \"#utility.yul\":2572:2691   */\n      iszero\n      tag_106\n      jumpi\n        /* \"#utility.yul\":2610:2689   */\n      tag_107\n      tag_51\n      jump\t// in\n    tag_107:\n        /* \"#utility.yul\":2572:2691   */\n    tag_106:\n        /* \"#utility.yul\":2730:2731   */\n      0x00\n        /* \"#utility.yul\":2755:2808   */\n      tag_108\n        /* \"#utility.yul\":2800:2807   */\n      dup9\n        /* \"#utility.yul\":2791:2797   */\n      dup3\n        /* \"#utility.yul\":2780:2789   */\n      dup10\n        /* \"#utility.yul\":2776:2798   */\n      add\n        /* \"#utility.yul\":2755:2808   */\n      tag_56\n      jump\t// in\n    tag_108:\n        /* \"#utility.yul\":2745:2808   */\n      swap6\n      pop\n        /* \"#utility.yul\":2701:2818   */\n      pop\n        /* \"#utility.yul\":2885:2887   */\n      0x20\n        /* \"#utility.yul\":2874:2883   */\n      dup7\n        /* \"#utility.yul\":2870:2888   */\n      add\n        /* \"#utility.yul\":2857:2889   */\n      calldataload\n        /* \"#utility.yul\":2916:2934   */\n      0xffffffffffffffff\n        /* \"#utility.yul\":2908:2914   */\n      dup2\n        /* \"#utility.yul\":2905:2935   */\n      gt\n        /* \"#utility.yul\":2902:3019   */\n      iszero\n      tag_109\n      jumpi\n        /* \"#utility.yul\":2938:3017   */\n      tag_110\n      tag_52\n      jump\t// in\n    tag_110:\n        /* \"#utility.yul\":2902:3019   */\n    tag_109:\n        /* \"#utility.yul\":3051:3131   */\n      tag_111\n        /* \"#utility.yul\":3123:3130   */\n      dup9\n        /* \"#utility.yul\":3114:3120   */\n      dup3\n        /* \"#utility.yul\":3103:3112   */\n      dup10\n        /* \"#utility.yul\":3099:3121   */\n      add\n        /* \"#utility.yul\":3051:3131   */\n      tag_60\n      jump\t// in\n    tag_111:\n        /* \"#utility.yul\":3033:3131   */\n      swap5\n      pop\n      swap5\n      pop\n        /* \"#utility.yul\":2828:3141   */\n      pop\n        /* \"#utility.yul\":3208:3210   */\n      0x40\n        /* \"#utility.yul\":3197:3206   */\n      dup7\n        /* \"#utility.yul\":3193:3211   */\n      add\n        /* \"#utility.yul\":3180:3212   */\n      calldataload\n        /* \"#utility.yul\":3239:3257   */\n      0xffffffffffffffff\n        /* \"#utility.yul\":3231:3237   */\n      dup2\n        /* \"#utility.yul\":3228:3258   */\n      gt\n        /* \"#utility.yul\":3225:3342   */\n      iszero\n      tag_112\n      jumpi\n        /* \"#utility.yul\":3261:3340   */\n      tag_113\n      tag_52\n      jump\t// in\n    tag_113:\n        /* \"#utility.yul\":3225:3342   */\n    tag_112:\n        /* \"#utility.yul\":3374:3454   */\n      tag_114\n        /* \"#utility.yul\":3446:3453   */\n      dup9\n        /* \"#utility.yul\":3437:3443   */\n      dup3\n        /* \"#utility.yul\":3426:3435   */\n      dup10\n        /* \"#utility.yul\":3422:3444   */\n      add\n        /* \"#utility.yul\":3374:3454   */\n      tag_61\n      jump\t// in\n    tag_114:\n        /* \"#utility.yul\":3356:3454   */\n      swap3\n      pop\n      swap3\n      pop\n        /* \"#utility.yul\":3151:3464   */\n      pop\n        /* \"#utility.yul\":2392:3471   */\n      swap3\n      swap6\n      pop\n      swap3\n      swap6\n      swap1\n      swap4\n      pop\n      jump\t// out\n        /* \"#utility.yul\":3477:3646   */\n    tag_62:\n        /* \"#utility.yul\":3561:3572   */\n      0x00\n        /* \"#utility.yul\":3595:3601   */\n      dup3\n        /* \"#utility.yul\":3590:3593   */\n      dup3\n        /* \"#utility.yul\":3583:3602   */\n      mstore\n        /* \"#utility.yul\":3635:3639   */\n      0x20\n        /* \"#utility.yul\":3630:3633   */\n      dup3\n        /* \"#utility.yul\":3626:3640   */\n      add\n        /* \"#utility.yul\":3611:3640   */\n      swap1\n      pop\n        /* \"#utility.yul\":3477:3646   */\n      swap3\n      swap2\n      pop\n      pop\n      jump\t// out\n        /* \"#utility.yul\":3652:3881   */\n    tag_63:\n        /* \"#utility.yul\":3792:3826   */\n      0x4c656e67746873206f662041646472657373657320616e6420416d6f756e7473\n        /* \"#utility.yul\":3788:3789   */\n      0x00\n        /* \"#utility.yul\":3780:3786   */\n      dup3\n        /* \"#utility.yul\":3776:3790   */\n      add\n        /* \"#utility.yul\":3769:3827   */\n      mstore\n        /* \"#utility.yul\":3861:3873   */\n      0x204e4f5420455155414c00000000000000000000000000000000000000000000\n        /* \"#utility.yul\":3856:3858   */\n      0x20\n        /* \"#utility.yul\":3848:3854   */\n      dup3\n        /* \"#utility.yul\":3844:3859   */\n      add\n        /* \"#utility.yul\":3837:3874   */\n      mstore\n        /* \"#utility.yul\":3652:3881   */\n      pop\n      jump\t// out\n        /* \"#utility.yul\":3887:4253   */\n    tag_64:\n        /* \"#utility.yul\":4029:4032   */\n      0x00\n        /* \"#utility.yul\":4050:4117   */\n      tag_118\n        /* \"#utility.yul\":4114:4116   */\n      0x2a\n        /* \"#utility.yul\":4109:4112   */\n      dup4\n        /* \"#utility.yul\":4050:4117   */\n      tag_62\n      jump\t// in\n    tag_118:\n        /* \"#utility.yul\":4043:4117   */\n      swap2\n      pop\n        /* \"#utility.yul\":4126:4219   */\n      tag_119\n        /* \"#utility.yul\":4215:4218   */\n      dup3\n        /* \"#utility.yul\":4126:4219   */\n      tag_63\n      jump\t// in\n    tag_119:\n        /* \"#utility.yul\":4244:4246   */\n      0x40\n        /* \"#utility.yul\":4239:4242   */\n      dup3\n        /* \"#utility.yul\":4235:4247   */\n      add\n        /* \"#utility.yul\":4228:4247   */\n      swap1\n      pop\n        /* \"#utility.yul\":3887:4253   */\n      swap2\n      swap1\n      pop\n      jump\t// out\n        /* \"#utility.yul\":4259:4678   */\n    tag_11:\n        /* \"#utility.yul\":4425:4429   */\n      0x00\n        /* \"#utility.yul\":4463:4465   */\n      0x20\n        /* \"#utility.yul\":4452:4461   */\n      dup3\n        /* \"#utility.yul\":4448:4466   */\n      add\n        /* \"#utility.yul\":4440:4466   */\n      swap1\n      pop\n        /* \"#utility.yul\":4512:4521   */\n      dup2\n        /* \"#utility.yul\":4506:4510   */\n      dup2\n        /* \"#utility.yul\":4502:4522   */\n      sub\n        /* \"#utility.yul\":4498:4499   */\n      0x00\n        /* \"#utility.yul\":4487:4496   */\n      dup4\n        /* \"#utility.yul\":4483:4500   */\n      add\n        /* \"#utility.yul\":4476:4523   */\n      mstore\n        /* \"#utility.yul\":4540:4671   */\n      tag_121\n        /* \"#utility.yul\":4666:4670   */\n      dup2\n        /* \"#utility.yul\":4540:4671   */\n      tag_64\n      jump\t// in\n    tag_121:\n        /* \"#utility.yul\":4532:4671   */\n      swap1\n      pop\n        /* \"#utility.yul\":4259:4678   */\n      swap2\n      swap1\n      pop\n      jump\t// out\n        /* \"#utility.yul\":4684:4802   */\n    tag_65:\n        /* \"#utility.yul\":4771:4795   */\n      tag_123\n        /* \"#utility.yul\":4789:4794   */\n      dup2\n        /* \"#utility.yul\":4771:4795   */\n      tag_54\n      jump\t// in\n    tag_123:\n        /* \"#utility.yul\":4766:4769   */\n      dup3\n        /* \"#utility.yul\":4759:4796   */\n      mstore\n        /* \"#utility.yul\":4684:4802   */\n      pop\n      pop\n      jump\t// out\n        /* \"#utility.yul\":4808:5140   */\n    tag_15:\n        /* \"#utility.yul\":4929:4933   */\n      0x00\n        /* \"#utility.yul\":4967:4969   */\n      0x40\n        /* \"#utility.yul\":4956:4965   */\n      dup3\n        /* \"#utility.yul\":4952:4970   */\n      add\n        /* \"#utility.yul\":4944:4970   */\n      swap1\n      pop\n        /* \"#utility.yul\":4980:5051   */\n      tag_125\n        /* \"#utility.yul\":5048:5049   */\n      0x00\n        /* \"#utility.yul\":5037:5046   */\n      dup4\n        /* \"#utility.yul\":5033:5050   */\n      add\n        /* \"#utility.yul\":5024:5030   */\n      dup6\n        /* \"#utility.yul\":4980:5051   */\n      tag_65\n      jump\t// in\n    tag_125:\n        /* \"#utility.yul\":5061:5133   */\n      tag_126\n        /* \"#utility.yul\":5129:5131   */\n      0x20\n        /* \"#utility.yul\":5118:5127   */\n      dup4\n        /* \"#utility.yul\":5114:5132   */\n      add\n        /* \"#utility.yul\":5105:5111   */\n      dup5\n        /* \"#utility.yul\":5061:5133   */\n      tag_65\n      jump\t// in\n    tag_126:\n        /* \"#utility.yul\":4808:5140   */\n      swap4\n      swap3\n      pop\n      pop\n      pop\n      jump\t// out\n        /* \"#utility.yul\":5146:5223   */\n    tag_66:\n        /* \"#utility.yul\":5183:5190   */\n      0x00\n        /* \"#utility.yul\":5212:5217   */\n      dup2\n        /* \"#utility.yul\":5201:5217   */\n      swap1\n      pop\n        /* \"#utility.yul\":5146:5223   */\n      swap2\n      swap1\n      pop\n      jump\t// out\n        /* \"#utility.yul\":5229:5351   */\n    tag_67:\n        /* \"#utility.yul\":5302:5326   */\n      tag_129\n        /* \"#utility.yul\":5320:5325   */\n      dup2\n        /* \"#utility.yul\":5302:5326   */\n      tag_66\n      jump\t// in\n    tag_129:\n        /* \"#utility.yul\":5295:5300   */\n      dup2\n        /* \"#utility.yul\":5292:5327   */\n      eq\n        /* \"#utility.yul\":5282:5345   */\n      tag_130\n      jumpi\n        /* \"#utility.yul\":5341:5342   */\n      0x00\n        /* \"#utility.yul\":5338:5339   */\n      dup1\n        /* \"#utility.yul\":5331:5343   */\n      revert\n        /* \"#utility.yul\":5282:5345   */\n    tag_130:\n        /* \"#utility.yul\":5229:5351   */\n      pop\n      jump\t// out\n        /* \"#utility.yul\":5357:5500   */\n    tag_68:\n        /* \"#utility.yul\":5414:5419   */\n      0x00\n        /* \"#utility.yul\":5445:5451   */\n      dup2\n        /* \"#utility.yul\":5439:5452   */\n      mload\n        /* \"#utility.yul\":5430:5452   */\n      swap1\n      pop\n        /* \"#utility.yul\":5461:5494   */\n      tag_132\n        /* \"#utility.yul\":5488:5493   */\n      dup2\n        /* \"#utility.yul\":5461:5494   */\n      tag_67\n      jump\t// in\n    tag_132:\n        /* \"#utility.yul\":5357:5500   */\n      swap3\n      swap2\n      pop\n      pop\n      jump\t// out\n        /* \"#utility.yul\":5506:5857   */\n    tag_19:\n        /* \"#utility.yul\":5576:5582   */\n      0x00\n        /* \"#utility.yul\":5625:5627   */\n      0x20\n        /* \"#utility.yul\":5613:5622   */\n      dup3\n        /* \"#utility.yul\":5604:5611   */\n      dup5\n        /* \"#utility.yul\":5600:5623   */\n      sub\n        /* \"#utility.yul\":5596:5628   */\n      slt\n        /* \"#utility.yul\":5593:5712   */\n      iszero\n      tag_134\n      jumpi\n        /* \"#utility.yul\":5631:5710   */\n      tag_135\n      tag_51\n      jump\t// in\n    tag_135:\n        /* \"#utility.yul\":5593:5712   */\n    tag_134:\n        /* \"#utility.yul\":5751:5752   */\n      0x00\n        /* \"#utility.yul\":5776:5840   */\n      tag_136\n        /* \"#utility.yul\":5832:5839   */\n      dup5\n        /* \"#utility.yul\":5823:5829   */\n      dup3\n        /* \"#utility.yul\":5812:5821   */\n      dup6\n        /* \"#utility.yul\":5808:5830   */\n      add\n        /* \"#utility.yul\":5776:5840   */\n      tag_68\n      jump\t// in\n    tag_136:\n        /* \"#utility.yul\":5766:5840   */\n      swap2\n      pop\n        /* \"#utility.yul\":5722:5850   */\n      pop\n        /* \"#utility.yul\":5506:5857   */\n      swap3\n      swap2\n      pop\n      pop\n      jump\t// out\n        /* \"#utility.yul\":5863:6037   */\n    tag_69:\n        /* \"#utility.yul\":6003:6029   */\n      0x4e65656420417070726f766520455243323020746f6b656e0000000000000000\n        /* \"#utility.yul\":5999:6000   */\n      0x00\n        /* \"#utility.yul\":5991:5997   */\n      dup3\n        /* \"#utility.yul\":5987:6001   */\n      add\n        /* \"#utility.yul\":5980:6030   */\n      mstore\n        /* \"#utility.yul\":5863:6037   */\n      pop\n      jump\t// out\n        /* \"#utility.yul\":6043:6409   */\n    tag_70:\n        /* \"#utility.yul\":6185:6188   */\n      0x00\n        /* \"#utility.yul\":6206:6273   */\n      tag_139\n        /* \"#utility.yul\":6270:6272   */\n      0x18\n        /* \"#utility.yul\":6265:6268   */\n      dup4\n        /* \"#utility.yul\":6206:6273   */\n      tag_62\n      jump\t// in\n    tag_139:\n        /* \"#utility.yul\":6199:6273   */\n      swap2\n      pop\n        /* \"#utility.yul\":6282:6375   */\n      tag_140\n        /* \"#utility.yul\":6371:6374   */\n      dup3\n        /* \"#utility.yul\":6282:6375   */\n      tag_69\n      jump\t// in\n    tag_140:\n        /* \"#utility.yul\":6400:6402   */\n      0x20\n        /* \"#utility.yul\":6395:6398   */\n      dup3\n        /* \"#utility.yul\":6391:6403   */\n      add\n        /* \"#utility.yul\":6384:6403   */\n      swap1\n      pop\n        /* \"#utility.yul\":6043:6409   */\n      swap2\n      swap1\n      pop\n      jump\t// out\n        /* \"#utility.yul\":6415:6834   */\n    tag_22:\n        /* \"#utility.yul\":6581:6585   */\n      0x00\n        /* \"#utility.yul\":6619:6621   */\n      0x20\n        /* \"#utility.yul\":6608:6617   */\n      dup3\n        /* \"#utility.yul\":6604:6622   */\n      add\n        /* \"#utility.yul\":6596:6622   */\n      swap1\n      pop\n        /* \"#utility.yul\":6668:6677   */\n      dup2\n        /* \"#utility.yul\":6662:6666   */\n      dup2\n        /* \"#utility.yul\":6658:6678   */\n      sub\n        /* \"#utility.yul\":6654:6655   */\n      0x00\n        /* \"#utility.yul\":6643:6652   */\n      dup4\n        /* \"#utility.yul\":6639:6656   */\n      add\n        /* \"#utility.yul\":6632:6679   */\n      mstore\n        /* \"#utility.yul\":6696:6827   */\n      tag_142\n        /* \"#utility.yul\":6822:6826   */\n      dup2\n        /* \"#utility.yul\":6696:6827   */\n      tag_70\n      jump\t// in\n    tag_142:\n        /* \"#utility.yul\":6688:6827   */\n      swap1\n      pop\n        /* \"#utility.yul\":6415:6834   */\n      swap2\n      swap1\n      pop\n      jump\t// out\n        /* \"#utility.yul\":6840:7020   */\n    tag_28:\n        /* \"#utility.yul\":6888:6965   */\n      0x4e487b7100000000000000000000000000000000000000000000000000000000\n        /* \"#utility.yul\":6885:6886   */\n      0x00\n        /* \"#utility.yul\":6878:6966   */\n      mstore\n        /* \"#utility.yul\":6985:6989   */\n      0x32\n        /* \"#utility.yul\":6982:6983   */\n      0x04\n        /* \"#utility.yul\":6975:6990   */\n      mstore\n        /* \"#utility.yul\":7009:7013   */\n      0x24\n        /* \"#utility.yul\":7006:7007   */\n      0x00\n        /* \"#utility.yul\":6999:7014   */\n      revert\n        /* \"#utility.yul\":7026:7355   */\n    tag_30:\n        /* \"#utility.yul\":7085:7091   */\n      0x00\n        /* \"#utility.yul\":7134:7136   */\n      0x20\n        /* \"#utility.yul\":7122:7131   */\n      dup3\n        /* \"#utility.yul\":7113:7120   */\n      dup5\n        /* \"#utility.yul\":7109:7132   */\n      sub\n        /* \"#utility.yul\":7105:7137   */\n      slt\n        /* \"#utility.yul\":7102:7221   */\n      iszero\n      tag_145\n      jumpi\n        /* \"#utility.yul\":7140:7219   */\n      tag_146\n      tag_51\n      jump\t// in\n    tag_146:\n        /* \"#utility.yul\":7102:7221   */\n    tag_145:\n        /* \"#utility.yul\":7260:7261   */\n      0x00\n        /* \"#utility.yul\":7285:7338   */\n      tag_147\n        /* \"#utility.yul\":7330:7337   */\n      dup5\n        /* \"#utility.yul\":7321:7327   */\n      dup3\n        /* \"#utility.yul\":7310:7319   */\n      dup6\n        /* \"#utility.yul\":7306:7328   */\n      add\n        /* \"#utility.yul\":7285:7338   */\n      tag_56\n      jump\t// in\n    tag_147:\n        /* \"#utility.yul\":7275:7338   */\n      swap2\n      pop\n        /* \"#utility.yul\":7231:7348   */\n      pop\n        /* \"#utility.yul\":7026:7355   */\n      swap3\n      swap2\n      pop\n      pop\n      jump\t// out\n        /* \"#utility.yul\":7361:7479   */\n    tag_71:\n        /* \"#utility.yul\":7448:7472   */\n      tag_149\n        /* \"#utility.yul\":7466:7471   */\n      dup2\n        /* \"#utility.yul\":7448:7472   */\n      tag_66\n      jump\t// in\n    tag_149:\n        /* \"#utility.yul\":7443:7446   */\n      dup3\n        /* \"#utility.yul\":7436:7473   */\n      mstore\n        /* \"#utility.yul\":7361:7479   */\n      pop\n      pop\n      jump\t// out\n        /* \"#utility.yul\":7485:7927   */\n    tag_34:\n        /* \"#utility.yul\":7634:7638   */\n      0x00\n        /* \"#utility.yul\":7672:7674   */\n      0x60\n        /* \"#utility.yul\":7661:7670   */\n      dup3\n        /* \"#utility.yul\":7657:7675   */\n      add\n        /* \"#utility.yul\":7649:7675   */\n      swap1\n      pop\n        /* \"#utility.yul\":7685:7756   */\n      tag_151\n        /* \"#utility.yul\":7753:7754   */\n      0x00\n        /* \"#utility.yul\":7742:7751   */\n      dup4\n        /* \"#utility.yul\":7738:7755   */\n      add\n        /* \"#utility.yul\":7729:7735   */\n      dup7\n        /* \"#utility.yul\":7685:7756   */\n      tag_65\n      jump\t// in\n    tag_151:\n        /* \"#utility.yul\":7766:7838   */\n      tag_152\n        /* \"#utility.yul\":7834:7836   */\n      0x20\n        /* \"#utility.yul\":7823:7832   */\n      dup4\n        /* \"#utility.yul\":7819:7837   */\n      add\n        /* \"#utility.yul\":7810:7816   */\n      dup6\n        /* \"#utility.yul\":7766:7838   */\n      tag_65\n      jump\t// in\n    tag_152:\n        /* \"#utility.yul\":7848:7920   */\n      tag_153\n        /* \"#utility.yul\":7916:7918   */\n      0x40\n        /* \"#utility.yul\":7905:7914   */\n      dup4\n        /* \"#utility.yul\":7901:7919   */\n      add\n        /* \"#utility.yul\":7892:7898   */\n      dup5\n        /* \"#utility.yul\":7848:7920   */\n      tag_71\n      jump\t// in\n    tag_153:\n        /* \"#utility.yul\":7485:7927   */\n      swap5\n      swap4\n      pop\n      pop\n      pop\n      pop\n      jump\t// out\n        /* \"#utility.yul\":7933:8023   */\n    tag_72:\n        /* \"#utility.yul\":7967:7974   */\n      0x00\n        /* \"#utility.yul\":8010:8015   */\n      dup2\n        /* \"#utility.yul\":8003:8016   */\n      iszero\n        /* \"#utility.yul\":7996:8017   */\n      iszero\n        /* \"#utility.yul\":7985:8017   */\n      swap1\n      pop\n        /* \"#utility.yul\":7933:8023   */\n      swap2\n      swap1\n      pop\n      jump\t// out\n        /* \"#utility.yul\":8029:8145   */\n    tag_73:\n        /* \"#utility.yul\":8099:8120   */\n      tag_156\n        /* \"#utility.yul\":8114:8119   */\n      dup2\n        /* \"#utility.yul\":8099:8120   */\n      tag_72\n      jump\t// in\n    tag_156:\n        /* \"#utility.yul\":8092:8097   */\n      dup2\n        /* \"#utility.yul\":8089:8121   */\n      eq\n        /* \"#utility.yul\":8079:8139   */\n      tag_157\n      jumpi\n        /* \"#utility.yul\":8135:8136   */\n      0x00\n        /* \"#utility.yul\":8132:8133   */\n      dup1\n        /* \"#utility.yul\":8125:8137   */\n      revert\n        /* \"#utility.yul\":8079:8139   */\n    tag_157:\n        /* \"#utility.yul\":8029:8145   */\n      pop\n      jump\t// out\n        /* \"#utility.yul\":8151:8288   */\n    tag_74:\n        /* \"#utility.yul\":8205:8210   */\n      0x00\n        /* \"#utility.yul\":8236:8242   */\n      dup2\n        /* \"#utility.yul\":8230:8243   */\n      mload\n        /* \"#utility.yul\":8221:8243   */\n      swap1\n      pop\n        /* \"#utility.yul\":8252:8282   */\n      tag_159\n        /* \"#utility.yul\":8276:8281   */\n      dup2\n        /* \"#utility.yul\":8252:8282   */\n      tag_73\n      jump\t// in\n    tag_159:\n        /* \"#utility.yul\":8151:8288   */\n      swap3\n      swap2\n      pop\n      pop\n      jump\t// out\n        /* \"#utility.yul\":8294:8639   */\n    tag_38:\n        /* \"#utility.yul\":8361:8367   */\n      0x00\n        /* \"#utility.yul\":8410:8412   */\n      0x20\n        /* \"#utility.yul\":8398:8407   */\n      dup3\n        /* \"#utility.yul\":8389:8396   */\n      dup5\n        /* \"#utility.yul\":8385:8408   */\n      sub\n        /* \"#utility.yul\":8381:8413   */\n      slt\n        /* \"#utility.yul\":8378:8497   */\n      iszero\n      tag_161\n      jumpi\n        /* \"#utility.yul\":8416:8495   */\n      tag_162\n      tag_51\n      jump\t// in\n    tag_162:\n        /* \"#utility.yul\":8378:8497   */\n    tag_161:\n        /* \"#utility.yul\":8536:8537   */\n      0x00\n        /* \"#utility.yul\":8561:8622   */\n      tag_163\n        /* \"#utility.yul\":8614:8621   */\n      dup5\n        /* \"#utility.yul\":8605:8611   */\n      dup3\n        /* \"#utility.yul\":8594:8603   */\n      dup6\n        /* \"#utility.yul\":8590:8612   */\n      add\n        /* \"#utility.yul\":8561:8622   */\n      tag_74\n      jump\t// in\n    tag_163:\n        /* \"#utility.yul\":8551:8622   */\n      swap2\n      pop\n        /* \"#utility.yul\":8507:8632   */\n      pop\n        /* \"#utility.yul\":8294:8639   */\n      swap3\n      swap2\n      pop\n      pop\n      jump\t// out\n        /* \"#utility.yul\":8645:8825   */\n    tag_75:\n        /* \"#utility.yul\":8693:8770   */\n      0x4e487b7100000000000000000000000000000000000000000000000000000000\n        /* \"#utility.yul\":8690:8691   */\n      0x00\n        /* \"#utility.yul\":8683:8771   */\n      mstore\n        /* \"#utility.yul\":8790:8794   */\n      0x11\n        /* \"#utility.yul\":8787:8788   */\n      0x04\n        /* \"#utility.yul\":8780:8795   */\n      mstore\n        /* \"#utility.yul\":8814:8818   */\n      0x24\n        /* \"#utility.yul\":8811:8812   */\n      0x00\n        /* \"#utility.yul\":8804:8819   */\n      revert\n        /* \"#utility.yul\":8831:9064   */\n    tag_40:\n        /* \"#utility.yul\":8870:8873   */\n      0x00\n        /* \"#utility.yul\":8893:8917   */\n      tag_166\n        /* \"#utility.yul\":8911:8916   */\n      dup3\n        /* \"#utility.yul\":8893:8917   */\n      tag_66\n      jump\t// in\n    tag_166:\n        /* \"#utility.yul\":8884:8917   */\n      swap2\n      pop\n        /* \"#utility.yul\":8939:9005   */\n      0xffffffffffffffffffffffffffffffffffffffffffffffffffffffffffffffff\n        /* \"#utility.yul\":8932:8937   */\n      dup3\n        /* \"#utility.yul\":8929:9006   */\n      sub\n        /* \"#utility.yul\":8926:9029   */\n      tag_167\n      jumpi\n        /* \"#utility.yul\":9009:9027   */\n      tag_168\n      tag_75\n      jump\t// in\n    tag_168:\n        /* \"#utility.yul\":8926:9029   */\n    tag_167:\n        /* \"#utility.yul\":9056:9057   */\n      0x01\n        /* \"#utility.yul\":9049:9054   */\n      dup3\n        /* \"#utility.yul\":9045:9058   */\n      add\n        /* \"#utility.yul\":9038:9058   */\n      swap1\n      pop\n        /* \"#utility.yul\":8831:9064   */\n      swap2\n      swap1\n      pop\n      jump\t// out\n        /* \"#utility.yul\":9070:9261   */\n    tag_48:\n        /* \"#utility.yul\":9110:9113   */\n      0x00\n        /* \"#utility.yul\":9129:9149   */\n      tag_170\n        /* \"#utility.yul\":9147:9148   */\n      dup3\n        /* \"#utility.yul\":9129:9149   */\n      tag_66\n      jump\t// in\n    tag_170:\n        /* \"#utility.yul\":9124:9149   */\n      swap2\n      pop\n        /* \"#utility.yul\":9163:9183   */\n      tag_171\n        /* \"#utility.yul\":9181:9182   */\n      dup4\n        /* \"#utility.yul\":9163:9183   */\n      tag_66\n      jump\t// in\n    tag_171:\n        /* \"#utility.yul\":9158:9183   */\n      swap3\n      pop\n        /* \"#utility.yul\":9206:9207   */\n      dup3\n        /* \"#utility.yul\":9203:9204   */\n      dup3\n        /* \"#utility.yul\":9199:9208   */\n      add\n        /* \"#utility.yul\":9192:9208   */\n      swap1\n      pop\n        /* \"#utility.yul\":9227:9230   */\n      dup1\n        /* \"#utility.yul\":9224:9225   */\n      dup3\n        /* \"#utility.yul\":9221:9231   */\n      gt\n        /* \"#utility.yul\":9218:9254   */\n      iszero\n      tag_172\n      jumpi\n        /* \"#utility.yul\":9234:9252   */\n      tag_173\n      tag_75\n      jump\t// in\n    tag_173:\n        /* \"#utility.yul\":9218:9254   */\n    tag_172:\n        /* \"#utility.yul\":9070:9261   */\n      swap3\n      swap2\n      pop\n      pop\n      jump\t// out\n\n    auxdata: 0xa2646970667358221220e79d906f5b7e7d09a7c3796e9cda92da586fc5bab47a03120a7b70cd63ee775864736f6c63430008150033\n}\n",
				"bytecode": {
					"linkReferences": {},
					"object": "608060405234801561000f575f80fd5b506107b48061001d5f395ff3fe608060405234801561000f575f80fd5b5060043610610029575f3560e01c8063cbc3b01e1461002d575b5f80fd5b610047600480360381019061004291906103b0565b610049565b005b818190508484905014610091576040517f08c379a0000000000000000000000000000000000000000000000000000000008152600401610088906104c1565b60405180910390fd5b5f8590505f6100a08484610246565b90508173ffffffffffffffffffffffffffffffffffffffff1663dd62ed3e33306040518363ffffffff1660e01b81526004016100dd9291906104ee565b602060405180830381865afa1580156100f8573d5f803e3d5ffd5b505050506040513d601f19601f8201168201806040525081019061011c9190610548565b81111561015e576040517f08c379a0000000000000000000000000000000000000000000000000000000008152600401610155906105bd565b60405180910390fd5b5f5b8686905081101561023c578273ffffffffffffffffffffffffffffffffffffffff166323b872dd3389898581811061019b5761019a6105db565b5b90506020020160208101906101b09190610608565b8888868181106101c3576101c26105db565b5b905060200201356040518463ffffffff1660e01b81526004016101e893929190610642565b6020604051808303815f875af1158015610204573d5f803e3d5ffd5b505050506040513d601f19601f8201168201806040525081019061022891906106ac565b50808061023490610704565b915050610160565b5050505050505050565b5f805f90505b838390508110156102915783838281811061026a576102696105db565b5b905060200201358261027c919061074b565b9150808061028990610704565b91505061024c565b5092915050565b5f80fd5b5f80fd5b5f73ffffffffffffffffffffffffffffffffffffffff82169050919050565b5f6102c9826102a0565b9050919050565b6102d9816102bf565b81146102e3575f80fd5b50565b5f813590506102f4816102d0565b92915050565b5f80fd5b5f80fd5b5f80fd5b5f8083601f84011261031b5761031a6102fa565b5b8235905067ffffffffffffffff811115610338576103376102fe565b5b60208301915083602082028301111561035457610353610302565b5b9250929050565b5f8083601f8401126103705761036f6102fa565b5b8235905067ffffffffffffffff81111561038d5761038c6102fe565b5b6020830191508360208202830111156103a9576103a8610302565b5b9250929050565b5f805f805f606086880312156103c9576103c8610298565b5b5f6103d6888289016102e6565b955050602086013567ffffffffffffffff8111156103f7576103f661029c565b5b61040388828901610306565b9450945050604086013567ffffffffffffffff8111156104265761042561029c565b5b6104328882890161035b565b92509250509295509295909350565b5f82825260208201905092915050565b7f4c656e67746873206f662041646472657373657320616e6420416d6f756e74735f8201527f204e4f5420455155414c00000000000000000000000000000000000000000000602082015250565b5f6104ab602a83610441565b91506104b682610451565b604082019050919050565b5f6020820190508181035f8301526104d88161049f565b9050919050565b6104e8816102bf565b82525050565b5f6040820190506105015f8301856104df565b61050e60208301846104df565b9392505050565b5f819050919050565b61052781610515565b8114610531575f80fd5b50565b5f815190506105428161051e565b92915050565b5f6020828403121561055d5761055c610298565b5b5f61056a84828501610534565b91505092915050565b7f4e65656420417070726f766520455243323020746f6b656e00000000000000005f82015250565b5f6105a7601883610441565b91506105b282610573565b602082019050919050565b5f6020820190508181035f8301526105d48161059b565b9050919050565b7f4e487b71000000000000000000000000000000000000000000000000000000005f52603260045260245ffd5b5f6020828403121561061d5761061c610298565b5b5f61062a848285016102e6565b91505092915050565b61063c81610515565b82525050565b5f6060820190506106555f8301866104df565b61066260208301856104df565b61066f6040830184610633565b949350505050565b5f8115159050919050565b61068b81610677565b8114610695575f80fd5b50565b5f815190506106a681610682565b92915050565b5f602082840312156106c1576106c0610298565b5b5f6106ce84828501610698565b91505092915050565b7f4e487b71000000000000000000000000000000000000000000000000000000005f52601160045260245ffd5b5f61070e82610515565b91507fffffffffffffffffffffffffffffffffffffffffffffffffffffffffffffffff82036107405761073f6106d7565b5b600182019050919050565b5f61075582610515565b915061076083610515565b9250828201905080821115610778576107776106d7565b5b9291505056fea2646970667358221220e79d906f5b7e7d09a7c3796e9cda92da586fc5bab47a03120a7b70cd63ee775864736f6c63430008150033",
					"opcodes": "PUSH1 0x80 PUSH1 0x40 MSTORE CALLVALUE DUP1 ISZERO PUSH2 0xF JUMPI PUSH0 DUP1 REVERT JUMPDEST POP PUSH2 0x7B4 DUP1 PUSH2 0x1D PUSH0 CODECOPY PUSH0 RETURN INVALID PUSH1 0x80 PUSH1 0x40 MSTORE CALLVALUE DUP1 ISZERO PUSH2 0xF JUMPI PUSH0 DUP1 REVERT JUMPDEST POP PUSH1 0x4 CALLDATASIZE LT PUSH2 0x29 JUMPI PUSH0 CALLDATALOAD PUSH1 0xE0 SHR DUP1 PUSH4 0xCBC3B01E EQ PUSH2 0x2D JUMPI JUMPDEST PUSH0 DUP1 REVERT JUMPDEST PUSH2 0x47 PUSH1 0x4 DUP1 CALLDATASIZE SUB DUP2 ADD SWAP1 PUSH2 0x42 SWAP2 SWAP1 PUSH2 0x3B0 JUMP JUMPDEST PUSH2 0x49 JUMP JUMPDEST STOP JUMPDEST DUP2 DUP2 SWAP1 POP DUP5 DUP5 SWAP1 POP EQ PUSH2 0x91 JUMPI PUSH1 0x40 MLOAD PUSH32 0x8C379A000000000000000000000000000000000000000000000000000000000 DUP2 MSTORE PUSH1 0x4 ADD PUSH2 0x88 SWAP1 PUSH2 0x4C1 JUMP JUMPDEST PUSH1 0x40 MLOAD DUP1 SWAP2 SUB SWAP1 REVERT JUMPDEST PUSH0 DUP6 SWAP1 POP PUSH0 PUSH2 0xA0 DUP5 DUP5 PUSH2 0x246 JUMP JUMPDEST SWAP1 POP DUP2 PUSH20 0xFFFFFFFFFFFFFFFFFFFFFFFFFFFFFFFFFFFFFFFF AND PUSH4 0xDD62ED3E CALLER ADDRESS PUSH1 0x40 MLOAD DUP4 PUSH4 0xFFFFFFFF AND PUSH1 0xE0 SHL DUP2 MSTORE PUSH1 0x4 ADD PUSH2 0xDD SWAP3 SWAP2 SWAP1 PUSH2 0x4EE JUMP JUMPDEST PUSH1 0x20 PUSH1 0x40 MLOAD DUP1 DUP4 SUB DUP2 DUP7 GAS STATICCALL ISZERO DUP1 ISZERO PUSH2 0xF8 JUMPI RETURNDATASIZE PUSH0 DUP1 RETURNDATACOPY RETURNDATASIZE PUSH0 REVERT JUMPDEST POP POP POP POP PUSH1 0x40 MLOAD RETURNDATASIZE PUSH1 0x1F NOT PUSH1 0x1F DUP3 ADD AND DUP3 ADD DUP1 PUSH1 0x40 MSTORE POP DUP2 ADD SWAP1 PUSH2 0x11C SWAP2 SWAP1 PUSH2 0x548 JUMP JUMPDEST DUP2 GT ISZERO PUSH2 0x15E JUMPI PUSH1 0x40 MLOAD PUSH32 0x8C379A000000000000000000000000000000000000000000000000000000000 DUP2 MSTORE PUSH1 0x4 ADD PUSH2 0x155 SWAP1 PUSH2 0x5BD JUMP JUMPDEST PUSH1 0x40 MLOAD DUP1 SWAP2 SUB SWAP1 REVERT JUMPDEST PUSH0 JUMPDEST DUP7 DUP7 SWAP1 POP DUP2 LT ISZERO PUSH2 0x23C JUMPI DUP3 PUSH20 0xFFFFFFFFFFFFFFFFFFFFFFFFFFFFFFFFFFFFFFFF AND PUSH4 0x23B872DD CALLER DUP10 DUP10 DUP6 DUP2 DUP2 LT PUSH2 0x19B JUMPI PUSH2 0x19A PUSH2 0x5DB JUMP JUMPDEST JUMPDEST SWAP1 POP PUSH1 0x20 MUL ADD PUSH1 0x20 DUP2 ADD SWAP1 PUSH2 0x1B0 SWAP2 SWAP1 PUSH2 0x608 JUMP JUMPDEST DUP9 DUP9 DUP7 DUP2 DUP2 LT PUSH2 0x1C3 JUMPI PUSH2 0x1C2 PUSH2 0x5DB JUMP JUMPDEST JUMPDEST SWAP1 POP PUSH1 0x20 MUL ADD CALLDATALOAD PUSH1 0x40 MLOAD DUP5 PUSH4 0xFFFFFFFF AND PUSH1 0xE0 SHL DUP2 MSTORE PUSH1 0x4 ADD PUSH2 0x1E8 SWAP4 SWAP3 SWAP2 SWAP1 PUSH2 0x642 JUMP JUMPDEST PUSH1 0x20 PUSH1 0x40 MLOAD DUP1 DUP4 SUB DUP2 PUSH0 DUP8 GAS CALL ISZERO DUP1 ISZERO PUSH2 0x204 JUMPI RETURNDATASIZE PUSH0 DUP1 RETURNDATACOPY RETURNDATASIZE PUSH0 REVERT JUMPDEST POP POP POP POP PUSH1 0x40 MLOAD RETURNDATASIZE PUSH1 0x1F NOT PUSH1 0x1F DUP3 ADD AND DUP3 ADD DUP1 PUSH1 0x40 MSTORE POP DUP2 ADD SWAP1 PUSH2 0x228 SWAP2 SWAP1 PUSH2 0x6AC JUMP JUMPDEST POP DUP1 DUP1 PUSH2 0x234 SWAP1 PUSH2 0x704 JUMP JUMPDEST SWAP2 POP POP PUSH2 0x160 JUMP JUMPDEST POP POP POP POP POP POP POP POP JUMP JUMPDEST PUSH0 DUP1 PUSH0 SWAP1 POP JUMPDEST DUP4 DUP4 SWAP1 POP DUP2 LT ISZERO PUSH2 0x291 JUMPI DUP4 DUP4 DUP3 DUP2 DUP2 LT PUSH2 0x26A JUMPI PUSH2 0x269 PUSH2 0x5DB JUMP JUMPDEST JUMPDEST SWAP1 POP PUSH1 0x20 MUL ADD CALLDATALOAD DUP3 PUSH2 0x27C SWAP2 SWAP1 PUSH2 0x74B JUMP JUMPDEST SWAP2 POP DUP1 DUP1 PUSH2 0x289 SWAP1 PUSH2 0x704 JUMP JUMPDEST SWAP2 POP POP PUSH2 0x24C JUMP JUMPDEST POP SWAP3 SWAP2 POP POP JUMP JUMPDEST PUSH0 DUP1 REVERT JUMPDEST PUSH0 DUP1 REVERT JUMPDEST PUSH0 PUSH20 0xFFFFFFFFFFFFFFFFFFFFFFFFFFFFFFFFFFFFFFFF DUP3 AND SWAP1 POP SWAP2 SWAP1 POP JUMP JUMPDEST PUSH0 PUSH2 0x2C9 DUP3 PUSH2 0x2A0 JUMP JUMPDEST SWAP1 POP SWAP2 SWAP1 POP JUMP JUMPDEST PUSH2 0x2D9 DUP2 PUSH2 0x2BF JUMP JUMPDEST DUP2 EQ PUSH2 0x2E3 JUMPI PUSH0 DUP1 REVERT JUMPDEST POP JUMP JUMPDEST PUSH0 DUP2 CALLDATALOAD SWAP1 POP PUSH2 0x2F4 DUP2 PUSH2 0x2D0 JUMP JUMPDEST SWAP3 SWAP2 POP POP JUMP JUMPDEST PUSH0 DUP1 REVERT JUMPDEST PUSH0 DUP1 REVERT JUMPDEST PUSH0 DUP1 REVERT JUMPDEST PUSH0 DUP1 DUP4 PUSH1 0x1F DUP5 ADD SLT PUSH2 0x31B JUMPI PUSH2 0x31A PUSH2 0x2FA JUMP JUMPDEST JUMPDEST DUP3 CALLDATALOAD SWAP1 POP PUSH8 0xFFFFFFFFFFFFFFFF DUP2 GT ISZERO PUSH2 0x338 JUMPI PUSH2 0x337 PUSH2 0x2FE JUMP JUMPDEST JUMPDEST PUSH1 0x20 DUP4 ADD SWAP2 POP DUP4 PUSH1 0x20 DUP3 MUL DUP4 ADD GT ISZERO PUSH2 0x354 JUMPI PUSH2 0x353 PUSH2 0x302 JUMP JUMPDEST JUMPDEST SWAP3 POP SWAP3 SWAP1 POP JUMP JUMPDEST PUSH0 DUP1 DUP4 PUSH1 0x1F DUP5 ADD SLT PUSH2 0x370 JUMPI PUSH2 0x36F PUSH2 0x2FA JUMP JUMPDEST JUMPDEST DUP3 CALLDATALOAD SWAP1 POP PUSH8 0xFFFFFFFFFFFFFFFF DUP2 GT ISZERO PUSH2 0x38D JUMPI PUSH2 0x38C PUSH2 0x2FE JUMP JUMPDEST JUMPDEST PUSH1 0x20 DUP4 ADD SWAP2 POP DUP4 PUSH1 0x20 DUP3 MUL DUP4 ADD GT ISZERO PUSH2 0x3A9 JUMPI PUSH2 0x3A8 PUSH2 0x302 JUMP JUMPDEST JUMPDEST SWAP3 POP SWAP3 SWAP1 POP JUMP JUMPDEST PUSH0 DUP1 PUSH0 DUP1 PUSH0 PUSH1 0x60 DUP7 DUP9 SUB SLT ISZERO PUSH2 0x3C9 JUMPI PUSH2 0x3C8 PUSH2 0x298 JUMP JUMPDEST JUMPDEST PUSH0 PUSH2 0x3D6 DUP9 DUP3 DUP10 ADD PUSH2 0x2E6 JUMP JUMPDEST SWAP6 POP POP PUSH1 0x20 DUP7 ADD CALLDATALOAD PUSH8 0xFFFFFFFFFFFFFFFF DUP2 GT ISZERO PUSH2 0x3F7 JUMPI PUSH2 0x3F6 PUSH2 0x29C JUMP JUMPDEST JUMPDEST PUSH2 0x403 DUP9 DUP3 DUP10 ADD PUSH2 0x306 JUMP JUMPDEST SWAP5 POP SWAP5 POP POP PUSH1 0x40 DUP7 ADD CALLDATALOAD PUSH8 0xFFFFFFFFFFFFFFFF DUP2 GT ISZERO PUSH2 0x426 JUMPI PUSH2 0x425 PUSH2 0x29C JUMP JUMPDEST JUMPDEST PUSH2 0x432 DUP9 DUP3 DUP10 ADD PUSH2 0x35B JUMP JUMPDEST SWAP3 POP SWAP3 POP POP SWAP3 SWAP6 POP SWAP3 SWAP6 SWAP1 SWAP4 POP JUMP JUMPDEST PUSH0 DUP3 DUP3 MSTORE PUSH1 0x20 DUP3 ADD SWAP1 POP SWAP3 SWAP2 POP POP JUMP JUMPDEST PUSH32 0x4C656E67746873206F662041646472657373657320616E6420416D6F756E7473 PUSH0 DUP3 ADD MSTORE PUSH32 0x204E4F5420455155414C00000000000000000000000000000000000000000000 PUSH1 0x20 DUP3 ADD MSTORE POP JUMP JUMPDEST PUSH0 PUSH2 0x4AB PUSH1 0x2A DUP4 PUSH2 0x441 JUMP JUMPDEST SWAP2 POP PUSH2 0x4B6 DUP3 PUSH2 0x451 JUMP JUMPDEST PUSH1 0x40 DUP3 ADD SWAP1 POP SWAP2 SWAP1 POP JUMP JUMPDEST PUSH0 PUSH1 0x20 DUP3 ADD SWAP1 POP DUP2 DUP2 SUB PUSH0 DUP4 ADD MSTORE PUSH2 0x4D8 DUP2 PUSH2 0x49F JUMP JUMPDEST SWAP1 POP SWAP2 SWAP1 POP JUMP JUMPDEST PUSH2 0x4E8 DUP2 PUSH2 0x2BF JUMP JUMPDEST DUP3 MSTORE POP POP JUMP JUMPDEST PUSH0 PUSH1 0x40 DUP3 ADD SWAP1 POP PUSH2 0x501 PUSH0 DUP4 ADD DUP6 PUSH2 0x4DF JUMP JUMPDEST PUSH2 0x50E PUSH1 0x20 DUP4 ADD DUP5 PUSH2 0x4DF JUMP JUMPDEST SWAP4 SWAP3 POP POP POP JUMP JUMPDEST PUSH0 DUP2 SWAP1 POP SWAP2 SWAP1 POP JUMP JUMPDEST PUSH2 0x527 DUP2 PUSH2 0x515 JUMP JUMPDEST DUP2 EQ PUSH2 0x531 JUMPI PUSH0 DUP1 REVERT JUMPDEST POP JUMP JUMPDEST PUSH0 DUP2 MLOAD SWAP1 POP PUSH2 0x542 DUP2 PUSH2 0x51E JUMP JUMPDEST SWAP3 SWAP2 POP POP JUMP JUMPDEST PUSH0 PUSH1 0x20 DUP3 DUP5 SUB SLT ISZERO PUSH2 0x55D JUMPI PUSH2 0x55C PUSH2 0x298 JUMP JUMPDEST JUMPDEST PUSH0 PUSH2 0x56A DUP5 DUP3 DUP6 ADD PUSH2 0x534 JUMP JUMPDEST SWAP2 POP POP SWAP3 SWAP2 POP POP JUMP JUMPDEST PUSH32 0x4E65656420417070726F766520455243323020746F6B656E0000000000000000 PUSH0 DUP3 ADD MSTORE POP JUMP JUMPDEST PUSH0 PUSH2 0x5A7 PUSH1 0x18 DUP4 PUSH2 0x441 JUMP JUMPDEST SWAP2 POP PUSH2 0x5B2 DUP3 PUSH2 0x573 JUMP JUMPDEST PUSH1 0x20 DUP3 ADD SWAP1 POP SWAP2 SWAP1 POP JUMP JUMPDEST PUSH0 PUSH1 0x20 DUP3 ADD SWAP1 POP DUP2 DUP2 SUB PUSH0 DUP4 ADD MSTORE PUSH2 0x5D4 DUP2 PUSH2 0x59B JUMP JUMPDEST SWAP1 POP SWAP2 SWAP1 POP JUMP JUMPDEST PUSH32 0x4E487B7100000000000000000000000000000000000000000000000000000000 PUSH0 MSTORE PUSH1 0x32 PUSH1 0x4 MSTORE PUSH1 0x24 PUSH0 REVERT JUMPDEST PUSH0 PUSH1 0x20 DUP3 DUP5 SUB SLT ISZERO PUSH2 0x61D JUMPI PUSH2 0x61C PUSH2 0x298 JUMP JUMPDEST JUMPDEST PUSH0 PUSH2 0x62A DUP5 DUP3 DUP6 ADD PUSH2 0x2E6 JUMP JUMPDEST SWAP2 POP POP SWAP3 SWAP2 POP POP JUMP JUMPDEST PUSH2 0x63C DUP2 PUSH2 0x515 JUMP JUMPDEST DUP3 MSTORE POP POP JUMP JUMPDEST PUSH0 PUSH1 0x60 DUP3 ADD SWAP1 POP PUSH2 0x655 PUSH0 DUP4 ADD DUP7 PUSH2 0x4DF JUMP JUMPDEST PUSH2 0x662 PUSH1 0x20 DUP4 ADD DUP6 PUSH2 0x4DF JUMP JUMPDEST PUSH2 0x66F PUSH1 0x40 DUP4 ADD DUP5 PUSH2 0x633 JUMP JUMPDEST SWAP5 SWAP4 POP POP POP POP JUMP JUMPDEST PUSH0 DUP2 ISZERO ISZERO SWAP1 POP SWAP2 SWAP1 POP JUMP JUMPDEST PUSH2 0x68B DUP2 PUSH2 0x677 JUMP JUMPDEST DUP2 EQ PUSH2 0x695 JUMPI PUSH0 DUP1 REVERT JUMPDEST POP JUMP JUMPDEST PUSH0 DUP2 MLOAD SWAP1 POP PUSH2 0x6A6 DUP2 PUSH2 0x682 JUMP JUMPDEST SWAP3 SWAP2 POP POP JUMP JUMPDEST PUSH0 PUSH1 0x20 DUP3 DUP5 SUB SLT ISZERO PUSH2 0x6C1 JUMPI PUSH2 0x6C0 PUSH2 0x298 JUMP JUMPDEST JUMPDEST PUSH0 PUSH2 0x6CE DUP5 DUP3 DUP6 ADD PUSH2 0x698 JUMP JUMPDEST SWAP2 POP POP SWAP3 SWAP2 POP POP JUMP JUMPDEST PUSH32 0x4E487B7100000000000000000000000000000000000000000000000000000000 PUSH0 MSTORE PUSH1 0x11 PUSH1 0x4 MSTORE PUSH1 0x24 PUSH0 REVERT JUMPDEST PUSH0 PUSH2 0x70E DUP3 PUSH2 0x515 JUMP JUMPDEST SWAP2 POP PUSH32 0xFFFFFFFFFFFFFFFFFFFFFFFFFFFFFFFFFFFFFFFFFFFFFFFFFFFFFFFFFFFFFFFF DUP3 SUB PUSH2 0x740 JUMPI PUSH2 0x73F PUSH2 0x6D7 JUMP JUMPDEST JUMPDEST PUSH1 0x1 DUP3 ADD SWAP1 POP SWAP2 SWAP1 POP JUMP JUMPDEST PUSH0 PUSH2 0x755 DUP3 PUSH2 0x515 JUMP JUMPDEST SWAP2 POP PUSH2 0x760 DUP4 PUSH2 0x515 JUMP JUMPDEST SWAP3 POP DUP3 DUP3 ADD SWAP1 POP DUP1 DUP3 GT ISZERO PUSH2 0x778 JUMPI PUSH2 0x777 PUSH2 0x6D7 JUMP JUMPDEST JUMPDEST SWAP3 SWAP2 POP POP JUMP INVALID LOG2 PUSH5 0x6970667358 0x22 SLT KECCAK256 0xE7 SWAP14 SWAP1 PUSH16 0x5B7E7D09A7C3796E9CDA92DA586FC5BA 0xB4 PUSH27 0x3120A7B70CD63EE775864736F6C63430008150033000000000000 "
				},
				"gasEstimates": {
					"creation": {
						"codeDepositCost": "394400",
						"executionCost": "428",
						"totalCost": "394828"
					},
					"external": {
						"SendAirDrop(address,address[],uint256[])": "infinite"
					},
					"internal": {
						"getSum(uint256[] calldata)": "infinite"
					}
				},
				"methodIdentifiers": {
					"SendAirDrop(address,address[],uint256[])": "cbc3b01e"
				}
			},
			"storageLayout": {
				"storage": [],
				"types": null
			},
			"userdoc": {
				"kind": "user",
				"methods": {},
				"notice": "向多个地址转账ERC20代币",
				"version": 1
			}
		}
	}
}